{
  "contractName": "TicTacToe",
  "abi": [
    {
      "inputs": [],
      "payable": false,
      "stateMutability": "nonpayable",
      "type": "constructor"
    },
    {
      "constant": true,
      "inputs": [],
      "name": "activeGamesCount",
      "outputs": [
        {
          "internalType": "uint256",
          "name": "",
          "type": "uint256"
        }
      ],
      "payable": false,
      "stateMutability": "view",
      "type": "function"
    },
    {
      "constant": true,
      "inputs": [
        {
          "internalType": "uint256",
          "name": "",
          "type": "uint256"
        }
      ],
      "name": "activeGamesList",
      "outputs": [
        {
          "internalType": "uint256",
          "name": "",
          "type": "uint256"
        }
      ],
      "payable": false,
      "stateMutability": "view",
      "type": "function"
    },
    {
      "constant": true,
      "inputs": [
        {
          "internalType": "address",
          "name": "",
          "type": "address"
        }
      ],
      "name": "activeGamesListByAddress",
      "outputs": [
        {
          "internalType": "uint256",
          "name": "",
          "type": "uint256"
        }
      ],
      "payable": false,
      "stateMutability": "view",
      "type": "function"
    },
    {
      "constant": true,
      "inputs": [],
      "name": "gameCount",
      "outputs": [
        {
          "internalType": "uint256",
          "name": "",
          "type": "uint256"
        }
      ],
      "payable": false,
      "stateMutability": "view",
      "type": "function"
    },
    {
      "constant": true,
      "inputs": [
        {
          "internalType": "uint256",
          "name": "",
          "type": "uint256"
        }
      ],
      "name": "gameList",
      "outputs": [
        {
          "internalType": "uint256",
          "name": "gameID",
          "type": "uint256"
        },
        {
          "internalType": "address",
          "name": "player1",
          "type": "address"
        },
        {
          "internalType": "address",
          "name": "player2",
          "type": "address"
        },
        {
          "internalType": "bool",
          "name": "isFinished",
          "type": "bool"
        },
        {
          "internalType": "bool",
          "name": "player1Turn",
          "type": "bool"
        },
        {
          "internalType": "bool",
          "name": "hasStarted",
          "type": "bool"
        },
        {
          "internalType": "bool",
          "name": "player1Dismissed",
          "type": "bool"
        },
        {
          "internalType": "bool",
          "name": "player2Dismissed",
          "type": "bool"
        },
        {
          "internalType": "bool",
          "name": "player1Won",
          "type": "bool"
        }
      ],
      "payable": false,
      "stateMutability": "view",
      "type": "function"
    },
    {
      "constant": true,
      "inputs": [],
      "name": "gameRequestsCount",
      "outputs": [
        {
          "internalType": "uint256",
          "name": "",
          "type": "uint256"
        }
      ],
      "payable": false,
      "stateMutability": "view",
      "type": "function"
    },
    {
      "constant": true,
      "inputs": [
        {
          "internalType": "uint256",
          "name": "",
          "type": "uint256"
        }
      ],
      "name": "gameRequestsList",
      "outputs": [
        {
          "internalType": "uint256",
          "name": "",
          "type": "uint256"
        }
      ],
      "payable": false,
      "stateMutability": "view",
      "type": "function"
    },
    {
      "constant": true,
      "inputs": [
        {
          "internalType": "address",
          "name": "",
          "type": "address"
        }
      ],
      "name": "gameRequestsListByAddress",
      "outputs": [
        {
          "internalType": "uint256",
          "name": "",
          "type": "uint256"
        }
      ],
      "payable": false,
      "stateMutability": "view",
      "type": "function"
    },
    {
      "constant": false,
      "inputs": [
        {
          "internalType": "uint256",
          "name": "inID",
          "type": "uint256"
        }
      ],
      "name": "addGameRequest",
      "outputs": [],
      "payable": false,
      "stateMutability": "nonpayable",
      "type": "function"
    },
    {
      "constant": false,
      "inputs": [
        {
          "internalType": "uint256",
          "name": "inID",
          "type": "uint256"
        }
      ],
      "name": "removeGameRequest",
      "outputs": [],
      "payable": false,
      "stateMutability": "nonpayable",
      "type": "function"
    },
    {
      "constant": false,
      "inputs": [
        {
          "internalType": "uint256",
          "name": "inID",
          "type": "uint256"
        }
      ],
      "name": "addActiveGame",
      "outputs": [],
      "payable": false,
      "stateMutability": "nonpayable",
      "type": "function"
    },
    {
      "constant": false,
      "inputs": [
        {
          "internalType": "uint256",
          "name": "inID",
          "type": "uint256"
        }
      ],
      "name": "removeActiveGame",
      "outputs": [],
      "payable": false,
      "stateMutability": "nonpayable",
      "type": "function"
    },
    {
      "constant": false,
      "inputs": [],
      "name": "createGameRequest",
      "outputs": [],
      "payable": false,
      "stateMutability": "nonpayable",
      "type": "function"
    },
    {
      "constant": false,
      "inputs": [
        {
          "internalType": "address",
          "name": "_opponentAddress",
          "type": "address"
        }
      ],
      "name": "joinGameRequest",
      "outputs": [
        {
          "internalType": "bool",
          "name": "result",
          "type": "bool"
        }
      ],
      "payable": false,
      "stateMutability": "nonpayable",
      "type": "function"
    },
    {
      "constant": false,
      "inputs": [
        {
          "internalType": "uint256",
          "name": "i",
          "type": "uint256"
        },
        {
          "internalType": "uint256",
          "name": "j",
          "type": "uint256"
        }
      ],
      "name": "playTurn",
      "outputs": [],
      "payable": false,
      "stateMutability": "nonpayable",
      "type": "function"
    },
    {
      "constant": false,
      "inputs": [
        {
          "internalType": "uint256",
          "name": "inputGame",
          "type": "uint256"
        }
      ],
      "name": "getGameArray",
      "outputs": [
        {
          "internalType": "uint8[3][3]",
          "name": "",
          "type": "uint8[3][3]"
        }
      ],
      "payable": false,
      "stateMutability": "nonpayable",
      "type": "function"
    },
    {
      "constant": false,
      "inputs": [],
      "name": "checkWin",
      "outputs": [
        {
          "internalType": "uint256",
          "name": "",
          "type": "uint256"
        }
      ],
      "payable": false,
      "stateMutability": "nonpayable",
      "type": "function"
    },
    {
      "constant": false,
      "inputs": [
        {
          "internalType": "uint256",
          "name": "inWinner",
          "type": "uint256"
        }
      ],
      "name": "markWin",
      "outputs": [],
      "payable": false,
      "stateMutability": "nonpayable",
      "type": "function"
    }
  ],
  "bytecode": "0x608060405234801561001057600080fd5b50611f75806100206000396000f3fe608060405234801561001057600080fd5b50600436106101165760003560e01c806374f02651116100a2578063a4ffc40c11610071578063a4ffc40c14610416578063c6cfd08e1461046e578063c9cef6c214610558578063ccff017014610576578063d24481ea146105a457610116565b806374f026511461031257806376550f8f146103405780638bbf401c146103825780638fe8172c146103de57610116565b806334667556116100e9578063346675561461025c5780634835d4691461029e5780634d1975b4146102a85780636cdf7078146102c657806372fb586b146102e457610116565b80630ef1c8a81461011b57806324ac1c111461014957806328f96b49146101775780632a155866146101cf575b600080fd5b6101476004803603602081101561013157600080fd5b81019080803590602001909291905050506105c2565b005b6101756004803603602081101561015f57600080fd5b8101908080359060200190929190505050610720565b005b6101b96004803603602081101561018d57600080fd5b81019080803573ffffffffffffffffffffffffffffffffffffffff1690602001909291905050506107da565b6040518082815260200191505060405180910390f35b6101fb600480360360208110156101e557600080fd5b81019080803590602001909291905050506107f2565b604051808260036000925b8184101561024c5782846020020151600360200280838360005b8381101561023b578082015181840152602081019050610220565b505050509050019260010192610206565b9250505091505060405180910390f35b6102886004803603602081101561027257600080fd5b81019080803590602001909291905050506108ad565b6040518082815260200191505060405180910390f35b6102a66108ce565b005b6102b0610c27565b6040518082815260200191505060405180910390f35b6102ce610c2d565b6040518082815260200191505060405180910390f35b610310600480360360208110156102fa57600080fd5b8101908080359060200190929190505050610c33565b005b61033e6004803603602081101561032857600080fd5b8101908080359060200190929190505050610d66565b005b61036c6004803603602081101561035657600080fd5b8101908080359060200190929190505050610e94565b6040518082815260200191505060405180910390f35b6103c46004803603602081101561039857600080fd5b81019080803573ffffffffffffffffffffffffffffffffffffffff169060200190929190505050610eb5565b604051808215151515815260200191505060405180910390f35b610414600480360360408110156103f457600080fd5b8101908080359060200190929190803590602001909291905050506110d5565b005b6104586004803603602081101561042c57600080fd5b81019080803573ffffffffffffffffffffffffffffffffffffffff16906020019092919050505061152b565b6040518082815260200191505060405180910390f35b61049a6004803603602081101561048457600080fd5b8101908080359060200190929190505050611543565b604051808a81526020018973ffffffffffffffffffffffffffffffffffffffff1673ffffffffffffffffffffffffffffffffffffffff1681526020018873ffffffffffffffffffffffffffffffffffffffff1673ffffffffffffffffffffffffffffffffffffffff168152602001871515151581526020018615151515815260200185151515158152602001841515151581526020018315151515815260200182151515158152602001995050505050505050505060405180910390f35b61056061161f565b6040518082815260200191505060405180910390f35b6105a26004803603602081101561058c57600080fd5b8101908080359060200190929190505050611625565b005b6105ac6117cb565b6040518082815260200191505060405180910390f35b6001600080600560003373ffffffffffffffffffffffffffffffffffffffff1673ffffffffffffffffffffffffffffffffffffffff16815260200190815260200160002054815260200190815260200160002060050160146101000a81548160ff02191690831515021790555060018114156106a6576001600080600560003373ffffffffffffffffffffffffffffffffffffffff1673ffffffffffffffffffffffffffffffffffffffff16815260200190815260200160002054815260200190815260200160002060050160196101000a81548160ff0219169083151502179055505b600281141561071d576000806000600560003373ffffffffffffffffffffffffffffffffffffffff1673ffffffffffffffffffffffffffffffffffffffff16815260200190815260200160002054815260200190815260200160002060050160196101000a81548160ff0219169083151502179055505b50565b6003819080600181540180825580915050906001820390600052602060002001600090919290919091505550806002600080600085815260200190815260200160002060040160009054906101000a900473ffffffffffffffffffffffffffffffffffffffff1673ffffffffffffffffffffffffffffffffffffffff1673ffffffffffffffffffffffffffffffffffffffff1681526020019081526020016000208190555060046000815480929190600101919050555050565b60026020528060005260406000206000915090505481565b6107fa611ce8565b600080838152602001908152602001600020600101600380602002604051908101604052809291906000905b828210156108a25783820160038060200260405190810160405280929190826003801561088e576020028201916000905b82829054906101000a900460ff1660ff16815260200190600101906020826000010492830192600103820291508084116108575790505b505050505081526020019060010190610826565b505050509050919050565b600681815481106108ba57fe5b906000526020600020016000915090505481565b6000806000600260003373ffffffffffffffffffffffffffffffffffffffff1673ffffffffffffffffffffffffffffffffffffffff168152602001908152602001600020548152602001908152602001600020600001541461092f57610c25565b600160008154809291906001019190505550610949611ce8565b6040518060600160405280600060ff168152602001600060ff168152602001600060ff168152508160006003811061097d57fe5b60200201819052506040518060600160405280600060ff168152602001600060ff168152602001600060ff16815250816001600381106109b957fe5b60200201819052506040518060600160405280600060ff168152602001600060ff168152602001600060ff16815250816002600381106109f557fe5b6020020181905250610a05611d15565b60405180610140016040528060015481526020018381526020013373ffffffffffffffffffffffffffffffffffffffff1681526020013373ffffffffffffffffffffffffffffffffffffffff16815260200160001515815260200160001515815260200160001515815260200160001515815260200160001515815260200160001515815250905080600080600154815260200190815260200160002060008201518160000155602082015181600101906003610ac3929190611da6565b5060408201518160040160006101000a81548173ffffffffffffffffffffffffffffffffffffffff021916908373ffffffffffffffffffffffffffffffffffffffff16021790555060608201518160050160006101000a81548173ffffffffffffffffffffffffffffffffffffffff021916908373ffffffffffffffffffffffffffffffffffffffff16021790555060808201518160050160146101000a81548160ff02191690831515021790555060a08201518160050160156101000a81548160ff02191690831515021790555060c08201518160050160166101000a81548160ff02191690831515021790555060e08201518160050160176101000a81548160ff0219169083151502179055506101008201518160050160186101000a81548160ff0219169083151502179055506101208201518160050160196101000a81548160ff021916908315150217905550905050610c22600154610720565b50505b565b60015481565b60075481565b6006819080600181540180825580915050906001820390600052602060002001600090919290919091505550806005600080600085815260200190815260200160002060040160009054906101000a900473ffffffffffffffffffffffffffffffffffffffff1673ffffffffffffffffffffffffffffffffffffffff1673ffffffffffffffffffffffffffffffffffffffff16815260200190815260200160002081905550806005600080600085815260200190815260200160002060050160009054906101000a900473ffffffffffffffffffffffffffffffffffffffff1673ffffffffffffffffffffffffffffffffffffffff1673ffffffffffffffffffffffffffffffffffffffff1681526020019081526020016000208190555060076000815480929190600101919050555050565b60008090505b600380549050811015610e8f578160038281548110610d8757fe5b90600052602060002001541415610e8257600360016004540381548110610daa57fe5b906000526020600020015460038281548110610dc257fe5b90600052602060002001819055506003805480610ddb57fe5b600190038181906000526020600020016000905590556002600080600085815260200190815260200160002060040160009054906101000a900473ffffffffffffffffffffffffffffffffffffffff1673ffffffffffffffffffffffffffffffffffffffff1673ffffffffffffffffffffffffffffffffffffffff168152602001908152602001600020600090556004600081548092919060019003919050555050610e91565b8080600101915050610d6c565b505b50565b60038181548110610ea157fe5b906000526020600020016000915090505481565b60008090506000600260008473ffffffffffffffffffffffffffffffffffffffff1673ffffffffffffffffffffffffffffffffffffffff168152602001908152602001600020541415610f0e57600090508090506110d0565b33600080600260008673ffffffffffffffffffffffffffffffffffffffff1673ffffffffffffffffffffffffffffffffffffffff16815260200190815260200160002054815260200190815260200160002060050160006101000a81548173ffffffffffffffffffffffffffffffffffffffff021916908373ffffffffffffffffffffffffffffffffffffffff1602179055506001600080600260008673ffffffffffffffffffffffffffffffffffffffff1673ffffffffffffffffffffffffffffffffffffffff16815260200190815260200160002054815260200190815260200160002060050160166101000a81548160ff02191690831515021790555061106b600080600260008673ffffffffffffffffffffffffffffffffffffffff1673ffffffffffffffffffffffffffffffffffffffff16815260200190815260200160002054815260200190815260200160002060000154610c33565b6110c8600080600260008673ffffffffffffffffffffffffffffffffffffffff1673ffffffffffffffffffffffffffffffffffffffff16815260200190815260200160002054815260200190815260200160002060000154610d66565b600190508090505b919050565b60008090503373ffffffffffffffffffffffffffffffffffffffff16600080600560003373ffffffffffffffffffffffffffffffffffffffff1673ffffffffffffffffffffffffffffffffffffffff16815260200190815260200160002054815260200190815260200160002060040160009054906101000a900473ffffffffffffffffffffffffffffffffffffffff1673ffffffffffffffffffffffffffffffffffffffff16141561118b5760019050611190565b600290505b6000809050600182141561120f57600080600560003373ffffffffffffffffffffffffffffffffffffffff1673ffffffffffffffffffffffffffffffffffffffff16815260200190815260200160002054815260200190815260200160002060050160159054906101000a900460ff161561120a57600190505b61127b565b600080600560003373ffffffffffffffffffffffffffffffffffffffff1673ffffffffffffffffffffffffffffffffffffffff16815260200190815260200160002054815260200190815260200160002060050160159054906101000a900460ff1661127a57600190505b5b8015611525576000806000600560003373ffffffffffffffffffffffffffffffffffffffff1673ffffffffffffffffffffffffffffffffffffffff16815260200190815260200160002054815260200190815260200160002060010185600381106112e257fe5b0184600381106112ee57fe5b602091828204019190069054906101000a900460ff1660ff1614156115245760018214156113a8576001600080600560003373ffffffffffffffffffffffffffffffffffffffff1673ffffffffffffffffffffffffffffffffffffffff168152602001908152602001600020548152602001908152602001600020600101856003811061137757fe5b01846003811061138357fe5b602091828204019190066101000a81548160ff021916908360ff160217905550611436565b6002600080600560003373ffffffffffffffffffffffffffffffffffffffff1673ffffffffffffffffffffffffffffffffffffffff168152602001908152602001600020548152602001908152602001600020600101856003811061140957fe5b01846003811061141557fe5b602091828204019190066101000a81548160ff021916908360ff1602179055505b600080600560003373ffffffffffffffffffffffffffffffffffffffff1673ffffffffffffffffffffffffffffffffffffffff16815260200190815260200160002054815260200190815260200160002060050160159054906101000a900460ff1615600080600560003373ffffffffffffffffffffffffffffffffffffffff1673ffffffffffffffffffffffffffffffffffffffff16815260200190815260200160002054815260200190815260200160002060050160156101000a81548160ff021916908315150217905550600061150e6117cb565b90506000811461152257611521816105c2565b5b505b5b50505050565b60056020528060005260406000206000915090505481565b60006020528060005260406000206000915090508060000154908060040160009054906101000a900473ffffffffffffffffffffffffffffffffffffffff16908060050160009054906101000a900473ffffffffffffffffffffffffffffffffffffffff16908060050160149054906101000a900460ff16908060050160159054906101000a900460ff16908060050160169054906101000a900460ff16908060050160179054906101000a900460ff16908060050160189054906101000a900460ff16908060050160199054906101000a900460ff16905089565b60045481565b60008090505b6006805490508110156117c657816006828154811061164657fe5b906000526020600020015414156117b95760066001600454038154811061166957fe5b90600052602060002001546006828154811061168157fe5b9060005260206000200181905550600680548061169a57fe5b600190038181906000526020600020016000905590556005600080600085815260200190815260200160002060040160009054906101000a900473ffffffffffffffffffffffffffffffffffffffff1673ffffffffffffffffffffffffffffffffffffffff1673ffffffffffffffffffffffffffffffffffffffff168152602001908152602001600020600090556005600080600085815260200190815260200160002060050160009054906101000a900473ffffffffffffffffffffffffffffffffffffffff1673ffffffffffffffffffffffffffffffffffffffff1673ffffffffffffffffffffffffffffffffffffffff1681526020019081526020016000206000905560076000815480929190600190039190505550506117c8565b808060010191505061162b565b505b50565b60006117d5611ce8565b600080600560003373ffffffffffffffffffffffffffffffffffffffff1673ffffffffffffffffffffffffffffffffffffffff168152602001908152602001600020548152602001908152602001600020600101600380602002604051908101604052809291906000905b828210156118bc578382016003806020026040519081016040528092919082600380156118a8576020028201916000905b82829054906101000a900460ff1660ff16815260200190600101906020826000010492830192600103820291508084116118715790505b505050505081526020019060010190611840565b505050509050600080905060008090505b6003811015611adb5760008382600381106118e457fe5b60200201516000600381106118f557fe5b602002015160ff16141580156119a5575082816003811061191257fe5b602002015160016003811061192357fe5b602002015160ff1683826003811061193757fe5b602002015160006003811061194857fe5b602002015160ff161480156119a4575082816003811061196457fe5b602002015160026003811061197557fe5b602002015160ff1683826003811061198957fe5b602002015160016003811061199a57fe5b602002015160ff16145b5b156119d2578281600381106119b657fe5b60200201516000600381106119c757fe5b602002015160ff1691505b6000836000600381106119e157fe5b602002015182600381106119f157fe5b602002015160ff1614158015611a4e575082600160038110611a0f57fe5b60200201518160038110611a1f57fe5b602002015160ff1683600060038110611a3457fe5b60200201518260038110611a4457fe5b602002015160ff16145b8015611aa1575082600260038110611a6257fe5b60200201518160038110611a7257fe5b602002015160ff1683600160038110611a8757fe5b60200201518260038110611a9757fe5b602002015160ff16145b15611ace5782600060038110611ab357fe5b60200201518160038110611ac357fe5b602002015160ff1691505b80806001019150506118cd565b50600082600160038110611aeb57fe5b6020020151600160038110611afc57fe5b602002015160ff1614158015611b5b575081600160038110611b1a57fe5b6020020151600160038110611b2b57fe5b602002015160ff1682600060038110611b4057fe5b6020020151600060038110611b5157fe5b602002015160ff16145b8015611bb0575081600260038110611b6f57fe5b6020020151600260038110611b8057fe5b602002015160ff1682600160038110611b9557fe5b6020020151600160038110611ba657fe5b602002015160ff16145b15611bde5781600160038110611bc257fe5b6020020151600160038110611bd357fe5b602002015160ff1690505b600082600160038110611bed57fe5b6020020151600160038110611bfe57fe5b602002015160ff1614158015611c5d575081600160038110611c1c57fe5b6020020151600160038110611c2d57fe5b602002015160ff1682600060038110611c4257fe5b6020020151600260038110611c5357fe5b602002015160ff16145b8015611cb2575081600260038110611c7157fe5b6020020151600060038110611c8257fe5b602002015160ff1682600160038110611c9757fe5b6020020151600160038110611ca857fe5b602002015160ff16145b15611ce05781600160038110611cc457fe5b6020020151600160038110611cd557fe5b602002015160ff1690505b809250505090565b60405180606001604052806003905b611cff611df4565b815260200190600190039081611cf75790505090565b60405180610140016040528060008152602001611d30611e16565b8152602001600073ffffffffffffffffffffffffffffffffffffffff168152602001600073ffffffffffffffffffffffffffffffffffffffff1681526020016000151581526020016000151581526020016000151581526020016000151581526020016000151581526020016000151581525090565b8260038101928215611de3579160200282015b82811115611de257825182906003611dd2929190611e43565b5091602001919060010190611db9565b5b509050611df09190611edd565b5090565b6040518060600160405280600390602082028038833980820191505090505090565b60405180606001604052806003905b611e2d611df4565b815260200190600190039081611e255790505090565b826003601f01602090048101928215611ecc5791602002820160005b83821115611e9d57835183826101000a81548160ff021916908360ff1602179055509260200192600101602081600001049283019260010302611e5f565b8015611eca5782816101000a81549060ff0219169055600101602081600001049283019260010302611e9d565b505b509050611ed99190611f09565b5090565b611f0691905b80821115611f025760008181611ef99190611f39565b50600101611ee3565b5090565b90565b611f3691905b80821115611f3257600081816101000a81549060ff021916905550600101611f0f565b5090565b90565b506000905556fea265627a7a723158201c1101b255a59edd0e2a4f54210996c4a5949fe0029c4522ae45133294f0c67a64736f6c63430005100032",
  "source": "pragma solidity >=0.4.2;\n\ncontract TicTacToe {\n    // Game construct\n    struct TicTacToeGame {\n        uint256 gameID;\n        uint8[3][3] board;\n        address player1;\n        address player2;\n        bool isFinished;\n        bool player1Turn;\n        bool hasStarted;\n        bool player1Dismissed;\n        bool player2Dismissed;\n        bool player1Won;\n    }\n\n    // Store game list\n    mapping(uint256 => TicTacToeGame) public gameList;\n    uint256 public gameCount;\n\n    // Game Requests\n    mapping(address => uint256) public gameRequestsListByAddress;\n    uint256[] public gameRequestsList;\n    uint256 public gameRequestsCount;\n\n    // Active Games\n    mapping(address => uint256) public activeGamesListByAddress;\n    uint256[] public activeGamesList;\n    uint256 public activeGamesCount;\n\n    constructor() public {}\n\n    // Array Storage operators\n    function addGameRequest(uint256 inID) public {\n        gameRequestsList.push(inID);\n        gameRequestsListByAddress[gameList[inID].player1] = inID;\n        gameRequestsCount++;\n    }\n\n    function removeGameRequest(uint256 inID) public {\n        for (uint256 i = 0; i < gameRequestsList.length; i++) {\n            if (gameRequestsList[i] == inID) {\n                gameRequestsList[i] = gameRequestsList[gameRequestsCount - 1];\n                gameRequestsList.pop();\n                delete gameRequestsListByAddress[gameList[inID].player1];\n                gameRequestsCount--;\n                return;\n            }\n        }\n    }\n\n    function addActiveGame(uint256 inID) public {\n        activeGamesList.push(inID);\n        activeGamesListByAddress[gameList[inID].player1] = inID;\n        activeGamesListByAddress[gameList[inID].player2] = inID;\n        activeGamesCount++;\n    }\n\n    function removeActiveGame(uint256 inID) public {\n        for (uint256 i = 0; i < activeGamesList.length; i++) {\n            if (activeGamesList[i] == inID) {\n                activeGamesList[i] = activeGamesList[gameRequestsCount - 1];\n                activeGamesList.pop();\n                delete activeGamesListByAddress[gameList[inID].player1];\n                delete activeGamesListByAddress[gameList[inID].player2];\n                activeGamesCount--;\n                return;\n            }\n        }\n    }\n\n    // Game creation and invite functionality\n\n    function createGameRequest() public {\n        if (gameList[gameRequestsListByAddress[msg.sender]].gameID != 0) {\n            return;\n        }\n\n        gameCount++;\n\n        uint8[3][3] memory someBoard;\n        someBoard[0] = [0, 0, 0];\n        someBoard[1] = [0, 0, 0];\n        someBoard[2] = [0, 0, 0];\n\n        TicTacToeGame memory newRequest = TicTacToeGame(\n            gameCount,\n            someBoard,\n            msg.sender,\n            msg.sender,\n            false,\n            false,\n            false,\n            false,\n            false,\n            false\n        );\n\n        gameList[gameCount] = newRequest;\n        addGameRequest(gameCount);\n    }\n\n    function joinGameRequest(address _opponentAddress)\n        public\n        returns (bool result)\n    {\n        result = false;\n\n        if (gameRequestsListByAddress[_opponentAddress] == 0) {\n            result = false;\n            return result;\n        } else {\n            gameList[gameRequestsListByAddress[_opponentAddress]].player2 = msg\n                .sender;\n            gameList[gameRequestsListByAddress[_opponentAddress]]\n                .hasStarted = true;\n            addActiveGame(\n                gameList[gameRequestsListByAddress[_opponentAddress]].gameID\n            );\n            removeGameRequest(\n                gameList[gameRequestsListByAddress[_opponentAddress]].gameID\n            );\n            result = true;\n            return result;\n        }\n    }\n\n    // Core gameplay functions\n\n    function playTurn(uint256 i, uint256 j) public {\n        uint256 playerVal = 0;\n\n        if (\n            gameList[activeGamesListByAddress[msg.sender]].player1 == msg.sender\n        ) {\n            playerVal = 1;\n        } else {\n            playerVal = 2;\n        }\n\n        bool canGo = false;\n\n        if (playerVal == 1) {\n            if (gameList[activeGamesListByAddress[msg.sender]].player1Turn) {\n                canGo = true;\n            }\n        } else {\n            if (!gameList[activeGamesListByAddress[msg.sender]].player1Turn) {\n                canGo = true;\n            }\n        }\n\n        if (canGo) {\n            if (\n                gameList[activeGamesListByAddress[msg.sender]].board[i][j] == 0\n            ) {\n                if (playerVal == 1) {\n                    gameList[activeGamesListByAddress[msg.sender]].board[i][\n                            j\n                        ] = 1;\n                } else {\n                    gameList[activeGamesListByAddress[msg.sender]].board[i][\n                            j\n                        ] = 2;\n                }\n                gameList[activeGamesListByAddress[msg.sender]]\n                    .player1Turn = !gameList[\n                    activeGamesListByAddress[msg.sender]\n                ].player1Turn;\n                uint256 winResult = checkWin();\n                if (winResult != 0) {\n                    markWin(winResult);\n                }\n            }\n        }\n    }\n\n    function getGameArray(uint256 inputGame)\n        public\n        returns (uint8[3][3] memory)\n    {\n        return gameList[inputGame].board;\n    }\n\n    function checkWin() public returns (uint256) {\n        uint8[3][3] memory board = gameList[\n            activeGamesListByAddress[msg.sender]\n        ].board;\n        uint256 result = 0;\n\n        for (uint256 i = 0; i < 3; i++) {\n            if (\n                board[i][0] != 0 &&\n                (board[i][0] == board[i][1] && board[i][1] == board[i][2])\n            ) {\n                result = board[i][0];\n            }\n            if (\n                (board[0][i] != 0) &&\n                (board[0][i] == board[1][i]) &&\n                (board[1][i] == board[2][i])\n            ) {\n                result = board[0][i];\n            }\n        }\n        if (\n            (board[1][1] != 0) &&\n            (board[0][0] == board[1][1]) &&\n            (board[1][1] == board[2][2])\n        ) {\n            result = board[1][1];\n        }\n        if (\n            (board[1][1] != 0) &&\n            (board[0][2] == board[1][1]) &&\n            (board[1][1] == board[2][0])\n        ) {\n            result = board[1][1];\n        }\n\n        return result;\n    }\n\n    function markWin(uint256 inWinner) public {\n        gameList[activeGamesListByAddress[msg.sender]].isFinished = true;\n        if (inWinner == 1) {\n            gameList[activeGamesListByAddress[msg.sender]].player1Won = true;\n        }\n        if (inWinner == 2) {\n            gameList[activeGamesListByAddress[msg.sender]].player1Won = false;\n        }\n    }\n}\n",
  "sourcePath": "/home/caloewen/dev/dappgame/contracts/TicTacToe.sol",
  "compiler": {
    "name": "solc",
    "version": "0.5.16+commit.9c3226ce.Emscripten.clang"
  },
  "schemaVersion": "3.4.5",
  "updatedAt": "2022-02-23T23:59:58.078Z",
  "networkType": "ethereum",
  "devdoc": {
    "methods": {}
  },
  "userdoc": {
    "methods": {}
  }
}